S01A0000415474696E792055534220636861726765722E73726563AB
S1130000ACC1C4C195C6C2C1C1C1C0C1D0C5BEC105
S1130010BDC1BCC1BBC1BAC1B9C1B8C1B7C1B6C108
S1130020B5C156616C756520636C69707065642038
S11300302D20000A746F207072696E7420746865D4
S1130040207461626C6520616761696E2C20736540
S11300506E6420444154413B20746F207361766583
S1130060202620657869742C2073656E64204558B9
S113007049540A00706172616D4E616D65202020E3
S1130080756E69742020202076616C7565202020AF
S11300906D696E20202020206D6178202020202092
S11300A064656661756C740A00746F206368616EC0
S11300B0676520706172616D65746572732C20735D
S11300C0656E643A20706172616D4E616D653D5676
S11300D0616C7565202020666F72206578616D7093
S11300E06C653A20566D61783D343530300A646F62
S11300F0206E6F7420666F7267657420746F20734E
S1130100656E6420746865204E65774C696E652061
S113011028616B61204C696E6546656564292063BE
S1130120686172616374657220617420746865200B
S1130130656E640A0A007265762E20312E304220E4
S113014020202020656D626564626C6F672E657582
S11301500A0A000A0A0A3D3D3D20415652204C69D4
S11301602D496F6E2043686172676572203D3D3D85
S11301700A002073657420746F2000496E76616CE8
S1130180696420636F6D6D616E64210A006461743B
S1130190612073617665642C207265737461727476
S11301A0696E670A006D566D566D416D416D416D06
S11301B0564320432000566D617856707265496D30
S11301C06178496375744970726556636F6E546DD6
S11301D0696E546D61780094119411D007D007D0E2
S11301E007A00F32007D00F401F40164000A000A44
S11301F0006400000000006810B80BE8036400C845
S113020000BC0200002D0054454D50455241545548
S11302105245204552524F520A003D3D46494E49EF
S1130220534845443D3D0A000A0020430A00206D1E
S1130230413B20743A2000206D563B20496F757471
S11302403A2000566F75743A2000746F20737461FD
S1130250727420636F6E6669672C2073656E642008
S1130260616E797468696E6720766961207365725E
S113027069616C20746F20746865206465766963B5
S1130280653B20616C7465726E61746976656C7926
S11302902C20636F6E6E65637420612062617474D8
S11302A065727920746F207374617274206368615D
S11302B07267696E670A0077616974696E672066A0
S11302C06F72206261747465727920636F6E6E65FB
S11302D06374696F6E2E2E2E0A0054656D706572FC
S11302E061747572652073656E736F72206E6F74BE
S11302F020666F756E640A0054656D706572617472
S11303007572652073656E736F72206465746563BE
S11303107465640A004E6F7468696E6720696E20A4
S1130320454550524F4D2C2064656661756C74735D
S113033020757365640A0044617461206C6F6164A4
S113034065642066726F6D20454550524F4D0A001A
S11303500A0A0A53544152540A0011241FBECFE51D
S1130360D1E0DEBFCDBF14BE0FB6F894A89581B519
S1130370886181BD11BC0FBE20E0A0E6B0E001C0E1
S11303801D92AF38B207E1F72AD2CFC539CE8130FA
S113039039F020F0823031F484E403C083E401C0F6
S11303A08DE487B987E886B9369A3699FECF90E00E
S11303B020E030E0961749F0369A3699FECF44B1E2
S11303C055B1240F351F9F5FF5CF220F331F220F26
S11303D0331F692F70E0C901FCD4CB0108950F933A
S11303E01F93CF93DF9380E090E073D5813A79F443
S11303F001E710E0C1E0D0E0CE0173D5F8018193AC
S113040091938F012296C131D105B1F711C087EFC5
S113041091E0A1E7B0E021E830E0FC01459154917E
S11304204D935D9302962A173B07B9F780E001C00C
S113043081E0DF91CF911F910F910895CF92DF92C8
S1130440EF92FF920F931F93CF93DF93109281004B
S113045083E591E01BD486E391E018D489EA90E027
S113046015D484E790E012D491E7E92E90E0F92EB8
S1130470C0E0D0E06E01CC0CDD1C00E010E0F60121
S1130480E00FF11FEA54FE4F8491C9D30F5F1F4F51
S113049004301105A1F768E080E23AD4FE01EB557F
S11304A0FE4F8491BCD3FE01EA55FE4F8491B7D32D
S11304B066E080E22DD46AE0F701819191917F0199
S11304C0F3D318E0612F681B80E222D4FE01E951C6
S11304D0FE4F859194916AE0E7D3612F681B80E217
S11304E017D4FE01E952FE4F859194916AE0DCD362
S11304F0612F681B80E20CD4FE01E950FE4F859108
S113050094916AE0D1D38AE08AD32296C031D1058E
S113051009F0B0CF83E390E0DF91CF911F910F9169
S1130520FF90EF90DF90CF90B1C3CF93DF9300D0D3
S113053000D0CDB7DEB7E3E8F0E08581898386811A
S11305408A8387818B8380858C83CE01019655D4E1
S11305500F900F900F900F90DF91CF9108950F930C
S11305601F93CF93DF9361EA80E090E0BED401E76C
S113057010E0C1E0D0E0E199FECFF8016191719102
S11305808F01CE01C0D42296C131D105A1F7DF91EC
S1130590CF911F910F910895DC0170E0660F771FD2
S11305A0FB01E952FE4F45915491FB01E951FE4F85
S11305B0859194912D913C9111974217530718F40A
S11305C04D935C9305C02817390728F48D939C93A9
S11305D082E290E05BC3089531DF60E2B62E809141
S11305E081008823E1F31092810000E010E0E8012B
S11305F0CD57DF4F888190E01DD488830F5F1F4F54
S113060004301105A1F7409183008091840020916A
S113061085003091860090E0A0E0B0E0DC019927ED
S11306208827B42B832B922B853622E7920720E769
S1130630A20729E6B20709F459C010F5843729E660
S1130640920728E7A20725E6B20709F440C040F460
S113065081369447A146B44609F04EC0EFDE8FC000
S1130660843725E7920723E6A20729E6B20709F4AF
S11306703BC088379146AD46B94609F48BC03CC0AF
S11306808E362FE6920723E6A20726E7B20781F10A
S113069078F4883721E692072DE6A20724E7B2070B
S11306A049F18E369946AD46B44731F5D6E029C0B6
S11306B0883721E692072DE6A20726E7B20701F163
S11306C085369247A047B647B9F4D1E01AC047DF50
S11306D08DE891E0DBD298E088E10FB6F894A89514
S11306E081BD0FBE91BDFFCFD3E00BC0D4E009C0E4
S11306F0D5E007C0D7E005C08BE791E0C7D23FC083
S1130700D0E00D2F0D2E000C110B0FDFF801EE0FB2
S1130710FF1FEF58FF4F918380836D2FCF013CDF84
S11307207801EE0CFF1CEE0CFF1CC12CD12CF70140
S1130730EC0DFD1DEA54FE4F849171D28FEFC81A5F
S1130740D80A24E0C216D10491F782E791E09ED240
S1130750000F111FF801EF58FF4F6AE0808191816B
S1130760A3D280E25CD2F801EB55FE4F849157D2BC
S1130770F801EA55FE4F849152D28AE050D280E0CB
S113078090E0FC01ED57FF4FB08201968C3091054B
S1130790C1F725CFD2E0B5CFD9013C91542F509564
S11307A05323342B2FB7F894FC01680F791FE617F5
S11307B0F70799F0819198E03C9300C000C087FF4F
S11307C05C93880F00C000C000C000C008F45C93B4
S11307D0000000C09A9581F7EACF2FBF08950CD28C
S11307E080E593E053D28BE08EBD82E19AE79BBD16
S11307F08ABD82E08CB97894D59AF1DD882319F00A
S113080087E393E002C085E193E040D2DC9A68E09C
S113081082E0BDDD80389C4030F481E08093640048
S113082088EF92E002C08AED92E030D2DC9887EB48
S113083092E02CD2C0E868E080E0A9DD880F991F1F
S113084020917B0030917C0028173907E8F18091D2
S11308508100882369F0C09368000AE310E02BE369
S113086030E040E263E070E086E690E095DFB4DEDD
S11308708AE492E00BD2C09368000AE310E02BE311
S113088030E040E263E070E086E690E085DF8FE7E9
S113089094E82EE1815090402040E1F700C0000030
S11308A0109268002BE330E040E263E070E086E6FB
S11308B090E072DF8FE794E82EE181509040204071
S11308C0E1F700C00000B7CF60E180E060DD880F91
S11308D0991F20917300309174008217930798F444
S11308E081E08093650080917500909176009093EB
S11308F06C0080936B008091790090917A009093C2
S113090076008093750083EC80BFBA9A81E083BF40
S113091080936100C4E1D0E052E3D52E60E8F62E66
S113092073E2C72EE0E5EE2E60E180E030DD880F53
S1130930991F9093700080936F0060E181E027DD40
S11309409C013695279530936E0020936D00E091BD
S11309507100F091720060916F007091700040918D
S1130960750050917600A6B781E0E617F70708F006
S113097080E091E04217530708F090E0982B29F0AB
S1130980AA2319F086B7815011C0A6B781E06E176B
S11309907F0708F080E091E0AF3F09F490E09823EE
S11309A031F02417350718F486B78F5F86BF80911E
S11309B06100882309F4B8CF10926100809164002B
S11309C0882361F068E082E0E2DC80599140BE0156
S11309D000D270936A006093690004C010926A00A8
S11309E01092690083E492E051D16AE080916F0033
S11309F09091700059D187E392E048D16AE08091E8
S1130A006D0090916E0050D18EE292E03FD16AE089
S1130A108091690090916A0047D18AE292E036D1D0
S1130A2088E292E033D180916500882341F1C0923D
S1130A306600E0926700E09268000AE310E02BE3AE
S1130A4030E040E263E070E086E690E0A5DE60E13D
S1130A5080E09DDC880F991F209173003091740011
S1130A602817390708F05DC01092650080916B006B
S1130A7090916C00909376008093750052C04091E1
S1130A806D0050916E002091710030917200809140
S1130A906F0090917000281B390B37FF03C031950C
S1130AA0219531098091750090917600841B950BF6
S1130AB097FF03C0919581959109281739071CF078
S1130AC01092660020C080917700909178004817BA
S1130AD05907B8F480E8809366001092670010927A
S1130AE068000AE310E02BE330E040E263E070E0EA
S1130AF086E690E051DE8AE192E0C8D016BE13BECD
S1130B00FFCFD0926600F0926700109268000AE36B
S1130B1010E02BE330E040E263E070E086E690E032
S1130B203BDE8091690090916A0020917F003091B2
S1130B3080002817390718F0069708F0F5CE809141
S1130B406400882309F4F0CE87E092E09FD016BEBB
S1130B5013BE1092660010926800C0E8C09367004C
S1130B600AE310E02BE330E040E263E070E086E665
S1130B7090E012DE8FE794E82EE18150904020400F
S1130B80E1F700C00000109267002BE330E040E280
S1130B9063E070E086E690E0FFDD8FE794E82EE105
S1130BA0815090402040E1F700C00000D7CF1F9251
S1130BB00F920FB60F9211248F939F938091600030
S1130BC08F5F80936000809160008A3070F0109293
S1130BD0600080916200909163000196909363009D
S1130BE08093620081E0809361009F918F910F90C8
S1130BF00FBE0F901F901895D79ADF9AD6988BB78F
S1130C0080618BBF969A80E090E020E2FC01ED5772
S1130C10FF4F208301968C309105C1F70895F89415
S1130C20DF98E3E0F1E03197F1F700C00000DF9ACC
S1130C3020E030E090E0AC01022E02C055954795CB
S1130C400A94E2F740FF02C0DF9A01C0DF98E3E0B4
S1130C50F1E03197F1F700C000002F5F3F4F2830DB
S1130C60310549F7DF9A789483E091E00197F1F731
S1130C7000C000000895CF93DF93EC01899188238D
S1130C8011F0CDDFFBCFDF91CF910895CF93DF93A8
S1130C90EC01FE012491222321F021968491BFDFEF
S1130CA0F8CFDF91CF9108950F931F93CF93DF93E4
S1130CB000D000D000D0CDB7DEB78C01462F50E075
S1130CC0BE016F5F7F4FBED0CE010196D4DF0A30E4
S1130CD0110560F00436110558F0083E83E018074A
S1130CE048F00031174240F085E007C081E005C0BC
S1130CF082E003C083E001C084E026960FB6F89436
S1130D00DEBF0FBECDBFDF91CF911F910F9108952C
S1130D101F93CF93DF93D82F162FC0E0C11721F074
S1130D208D2F7DDFCF5FFACFDF91CF911F91089593
S1130D301F920F920FB60F9211242F933F934F934C
S1130D405F936F937F938F939F93EF93FF93CE99CA
S1130D5031C085E891E00197F1F700C0000020E080
S1130D6030E080E041E050E0CE9B07C0BA01022EA3
S1130D7001C0660F0A94EAF7862BE3E0F1E03197AD
S1130D80F1F700C000002F5F3F4F2830310561F7B5
S1130D908A3059F0E091820091E09E0F9093820096
S1130DA0F0E0ED57FF4F808305C081E08093810020
S1130DB010928200FF91EF919F918F917F916F919B
S1130DC05F914F913F912F910F900FBE0F901F9005
S1130DD01895AA1BBB1B51E107C0AA1FBB1FA6176E
S1130DE0B70710F0A61BB70B881F991F5A95A9F7D0
S1130DF080959095BC01CD010895FC018827992721
S1130E00E89421912032E9F3293010F02E30C8F310
S1130E102B3239F02D3231F4689403C027D0820F7D
S1130E20911D219120532A30C8F31EF49095819589
S1130E309F4F08959111089581548A5108F4805E5A
S1130E40855A08954532510518F4423008F004C01B
S1130E50FB011082CB010895BB274A3031F499235A
S1130E6022F4BDE2909581959F4F0BC0BC01880F81
S1130E70991F880F991F860F971F880F991F089530
S1130E80BB27FB015527AA27880F991FAA1FA41760
S1130E9010F0A41B83955051B9F7A05DAA3308F054
S1130EA0A95DA193009779F7B111B1931192CB0188
S1130EB000C0DC01FC01672F71917723E1F73297C1
S1130EC004C07C916D9370836291AE17BF07C8F321
S1130ED00895E199FECF1FBA8EBBE09A99278DB38E
S1130EE00895A8E1B0E042E013C0262FE199FECFB7
S1130EF01CBA1FBA8EBB2DBB0FB6F894E29AE19AC6
S1130F000FBE01960895F1DF272FF0CFDC01862F65
S1130F10E82FE199FECF1FBA05C0EEBBE09AE39536
S1110F200DB20D924150C8F70895F894FFCF1A
S9030000FC
