S01A0000415474696E792055534220636861726765722E73726563AB
S113000069C181C1F4C67FC17EC17DC12FC67BC1D8
S11300107AC179C178C177C176C175C174C173C120
S113002072C156616C756520636C6970706564207B
S11300302D20000A746F207072696E7420746865D4
S1130040207461626C6520616761696E2C20736540
S11300506E6420444154413B20746F207361766583
S1130060202620657869742C2073656E64204558B9
S113007049540A00706172616D4E616D65202020E3
S1130080756E69742020202076616C7565202020AF
S11300906D696E20202020206D6178202020202092
S11300A064656661756C740A00746F206368616EC0
S11300B0676520706172616D65746572732C20735D
S11300C0656E643A20706172616D4E616D653D5676
S11300D0616C7565202020666F72206578616D7093
S11300E06C653A20566D61783D343530300A646F62
S11300F0206E6F7420666F7267657420746F20734E
S1130100656E6420746865204E65774C696E652061
S113011028616B61204C696E6546656564292063BE
S1130120686172616374657220617420746865200B
S1130130656E640A0A007265762E20312E30202006
S113014020202020656D626564626C6F672E657582
S11301500A0A000A0A0A3D3D3D20415652204C69D4
S11301602D496F6E2043686172676572203D3D3D85
S11301700A002073657420746F2000496E76616CE8
S1130180696420636F6D6D616E64210A006461743B
S1130190612073617665642C207265737461727476
S11301A0696E670A006D566D566D416D416D412053
S11301B04320436D5600566D617856707265496DE3
S11301C061784963757449707265546D696E546DD4
S11301D0617856636F6E0094119411D007D007D0E4
S11301E00732007D00A00FF401F40164000A000A44
S11301F0000000000064006810B80BE8036400C845
S11302000000002D00BC024552524F520A003D3DF1
S113021046494E49534845443D3D0A000A0020439F
S11302200A00206D413B20743A2000206D563B208B
S1130230496F75743A2000566F75743A2000746FD4
S113024020737461727420636F6E6669672C207307
S1130250656E6420616E797468696E6720746F20BE
S1130260746865206465766963650A0077616974FA
S1130270696E6720666F722062617474657279209A
S1130280636F6E6E656374696F6E2E2E2E0A004E58
S11302906F7468696E6720696E20454550524F4DF2
S11302A02C2064656661756C747320757365640ACB
S11302B00044617461206C6F616465642066726FD0
S11302C06D20454550524F4D0A000A0A0A535441C5
S11302D052540A0011241FBECFE5D1E0DEBFCDBFCA
S11302E014BE0FB6F894A89581B5886181BD11BC80
S11302F00FBE20E0A0E6B0E001C01D92AB39B2070A
S1130300E1F715D371C67CCE813039F020F082300C
S113031031F484E403C083E401C08DE487B987E841
S113032086B9369A3699FECF90E020E030E09617F1
S113033049F0369A3699FECF44B155B1240F351F92
S11303409F5FF5CF220F331F220F331F692F70E0F9
S1130350C9019ED5CB01089580E090E019D6813A79
S1130360B1F581E090E01CD690938C0080938B00D3
S113037083E090E015D690938A008093890085E00D
S113038090E00ED6909388008093870087E090E0F9
S113039007D6909386008093850089E090E000D68C
S11303A090938400809383008AE090E0F1D5809359
S11303B080008BE090E0ECD580937F008CE090E0AF
S11303C0EFD5909382008093810081E00895E7EF58
S11303D0F1E08591949190938C0080938B00E9EFE8
S11303E0F1E08591949190938A0080938900EBEFDA
S11303F0F1E0859194919093880080938700EDEFCC
S1130400F1E0859194919093860080938500EFEFBD
S1130410F1E0859194919093840080938300E1E0CE
S1130420F2E08591949180938000E3E0F2E085917D
S1130430949180937F00E5E0F2E08591949190930C
S113044082008093810080E00895E0E6F0E08091EE
S11304508B0090918C00918380838091890090918E
S11304608A0093838283809187009091880095838A
S11304708483809185009091860097838683809100
S11304808300909184009187808780918000082E5A
S1130490000C990B9387828780917F00082E000CB3
S11304A0990B95878487809181009091820097872A
S11304B086870895CF92DF92EF92FF920F931F9356
S11304C0CF93DF9310928D0083E591E03ED486E3D1
S11304D091E03BD489EA90E038D484E790E035D4C5
S11304E0B4DF90E6E92E90E0F92EC0E0D0E06E0192
S11304F0CC0CDD1C00E010E0F601E00FF11FEA5423
S1130500FE4F8491EBD30F5F1F4F04301105A1F709
S113051068E080E25CD4FE01EB55FE4F8491DED3AB
S1130520FE01EA55FE4F8491D9D366E080E24FD4B0
S11305306AE0F701819191917F0115D418E0612F50
S1130540681B80E244D4FE01E951FE4F85919491E9
S11305506AE009D4612F681B80E239D4FE01E952B4
S1130560FE4F859194916AE0FED3612F681B80E26F
S11305702ED4FE01E950FE4F859194916AE0F3D3A5
S11305808AE0ACD32296C031D10509F0B0CF83E321
S113059090E0DF91CF911F910F91FF90EF90DF904A
S11305A0CF90D3C3CF93DF9300D000D0CDB7DEB7C5
S11305B0EFE8F0E08581898386818A8387818B8354
S11305C080858C83CE01019677D40F900F900F9085
S11305D00F90DF91CF91089561EA80E090E0E4D438
S11305E0E199FECF60918B0070918C0081E090E0E6
S11305F0E9D4E199FECF6091890070918A0083E08B
S113060090E0E0D4E199FECF60918700709188007A
S113061085E090E0D7D4E199FECF60918500709198
S1130620860087E090E0CED4E199FECF609183000C
S11306307091840089E090E0C5D4E199FECF609187
S113064080008AE090E0B0D4E199FECF60917F0011
S11306508BE090E0A9D4E199FECF60918100709184
S113066082008CE090E0AED4E199FECF0895DC01E5
S113067070E0660F771FFB01E952FE4F45915491DC
S1130680FB01E951FE4F859194912D913C91119775
S11306904217530718F44D935C9305C02817390784
S11306A028F48D939C9382E290E04FC3089502DF77
S11306B060E2B62E80918D008823E1F310928D00C4
S11306C000E010E0E801C157DF4F888190E011D4C9
S11306D088830F5F1F4F04301105A1F740918F00ED
S11306E080919000209191003091920090E0A0E0E0
S11306F0B0E0DC0199278827B42B832B922B853615
S113070022E7920720E7A20729E6B20709F48BC083
S113071060F5843729E6920728E7A20725E6B207A1
S113072009F45EC040F481369447A146B44609F00A
S113073099C0C0DECEC0843725E7920723E6A2071E
S113074029E6B20709F464C088379146AD46B94634
S113075009F088C027DF909388008093870062E0C7
S113076087E890E084DFE2E081C08E362FE69207CE
S113077023E6A20726E7B20709F469C0C0F4883764
S113078021E692072DE6A20724E7B20709F456C032
S11307908E369946AD46B44709F064C003DF8093B2
S11307A0800065E080E890E062DFE5E05FC08837C4
S11307B021E692072DE6A20726E7B207F1F0853677
S11307C09247A047B64709F04DC0ECDE90938A00EB
S11307D08093890061E089E890E049DFE1E046C068
S11307E0FBDE8DE891E0B1D298E088E10FB6F89491
S11307F0A89581BD0FBE91BDFFCFD4DE90938C0030
S113080080938B0060E08BE890E031DFE0E02EC065
S1130810C9DE909386008093850063E085E890E0CC
S113082026DFE3E023C0BEDE909384008093830040
S113083064E083E890E01BDFE4E018C0B3DE80935B
S11308407F0066E08FE790E012DFE6E00FC0AADEEB
S1130850909382008093810067E081E890E007DF55
S1130860E7E004C08BE791E070D233C00E2FEE0FA7
S1130870110B7801EE0CFF1CEE0CFF1CC12CD12CCB
S1130880F701EC0DFD1DEA54FE4F849127D28FEF42
S1130890C81AD80A24E0C216D10491F782E791E07D
S11308A054D2D3DD000F111FF801E05AFF4F6AE064
S11308B08081918158D280E211D2F801EB55FE4F2C
S11308C084910CD2F801EA55FE4F849107D28AE054
S11308D005D280E090E0FC01E157FF4FB082019621
S11308E08C309105C1F7E6CED9013C91542F509537
S11308F05323342B2FB7F894FC01680F791FE617A4
S1130900F70799F0819198E03C9300C000C087FFFD
S11309105C93880F00C000C000C000C008F45C9362
S1130920000000C09A9581F7EACF2FBF0895C3D184
S11309308AEC92E00AD28BE08EBD82E19AE79BBDFD
S11309408ABD82E08CB97894D59A06DD882319F0A3
S113095081EB92E002C08FE892E0F7D18CE692E05E
S1130960F4D1C0E868E080E0CFDC880F991F2091C3
S113097081003091820028173907E8F180918D00B9
S1130980882369F0C09377000AE310E02BE330E09A
S113099040E263E070E085E790E0A6DF88DE8EE366
S11309A092E0D3D1C09377000AE310E02BE330E068
S11309B040E263E070E085E790E096DF2FE784E8AB
S11309C09EE1215080409040E1F700C00000109269
S11309D077002BE330E040E263E070E085E790E0ED
S11309E083DF2FE784E89EE1215080409040E1F7C7
S11309F000C00000B7CF60E180E086DC880F991F5B
S1130A002091890030918A008217930798F481E03D
S1130A1080937400809187009091880090937A006D
S1130A208093790080918300909184009093880052
S1130A308093870083EC80BFBA9A81E083BF809360
S1130A407100C4E1D0E052E3D52E60E8F62E73E2E3
S1130A50C72EE0E5EE2E60E180E056DC880F991F9A
S1130A6090937E0080937D0060E181E04DDC9C01E9
S1130A703695279530937C0020937B00E0917D0090
S1130A80F0917E0060918B0070918C004091870002
S1130A9050918800A6B781E06E177F0708F080E0C8
S1130AA091E04217530708F090E0982B29F0AA230D
S1130AB019F086B7815011C0A6B781E0E617F70791
S1130AC008F080E091E0AF3F09F490E0982331F022
S1130AD02417350718F486B78F5F86BF809171009D
S1130AE0882309F4B8CF1092710068E082E00CDC2E
S1130AF080599140BE01CCD16093780087E392E0A5
S1130B0024D16AE080917D0090917E002CD18BE20B
S1130B1092E01BD16AE080917B0090917C0023D10C
S1130B2082E292E012D1809178006AE090E01BD1D9
S1130B308EE192E00AD18CE192E007D180917400B9
S1130B40882341F1C0927500E0927600E09277002C
S1130B500AE310E02BE330E040E263E070E085E775
S1130B6090E0C2DE60E180E0CFDB880F991F209126
S1130B70890030918A002817390708F05DC0109267
S1130B8074008091790090917A009093880080930A
S1130B90870052C040917B0050917C0020918B00D3
S1130BA030918C0080917D0090917E00281B390B40
S1130BB037FF03C0319521953109809187009091C9
S1130BC08800841B950B97FF03C09195819591092B
S1130BD0281739071CF01092750020C080918500F9
S1130BE09091860048175907B8F480E880937500FF
S1130BF010927600109277000AE310E02BE330E0C5
S1130C0040E263E070E085E790E06EDE8EE092E023
S1130C109CD016BE13BEFFCFD0927500F092760022
S1130C20109277000AE310E02BE330E040E263E047
S1130C3070E085E790E058DE8091780090E02091A4
S1130C407F00022E000C330B281739074CF020913B
S1130C508000022E000C330B821793070CF0FBCE9E
S1130C6087E092E072D016BE13BEFFCF1F920F92A0
S1130C700FB60F9211248F939F93809170008F5F12
S1130C8080937000809170008A3070F01092700030
S1130C9080917200909173000196909373008093F9
S1130CA0720081E0809371009F918F910F900FBE2D
S1130CB00F901F901895D79ADF9AD6988BB78061BA
S1130CC08BBF969A80E090E020E2FC01E157FF4F51
S1130CD0208301968C309105C1F70895F894DF982C
S1130CE0E3E0F1E03197F1F700C00000DF9A20E083
S1130CF030E090E0AC01022E02C0559547950A946D
S1130D00E2F740FF02C0DF9A01C0DF98E3E0F1E0C0
S1130D103197F1F700C000002F5F3F4F28303105B5
S1130D2049F7DF9A789483E091E00197F1F700C0E6
S1130D3000000895CF93DF93EC018991882311F08B
S1130D40CDDFFBCFDF91CF910895CF93DF93EC01FB
S1130D50FE012491222321F021968491BFDFF8CF54
S1130D60DF91CF9108950F931F93CF93DF9300D01A
S1130D7000D000D0CDB7DEB78C01462F50E0BE01C5
S1130D806F5F7F4FBED0CE010196D4DF0A301105CC
S1130D9060F00436110558F0083E83E0180748F067
S1130DA00031174240F085E007C081E005C082E0D1
S1130DB003C083E001C084E026960FB6F894DEBF3A
S1130DC00FBECDBFDF91CF911F910F9108951F9357
S1130DD0CF93DF93D82F162FC0E0C11721F08D2FAA
S1130DE07DDFCF5FFACFDF91CF911F9108951F92DE
S1130DF00F920FB60F9211242F933F934F935F934B
S1130E006F937F938F939F93EF93FF93CE9931C00A
S1130E1085E891E00197F1F700C0000020E030E0A0
S1130E2080E041E050E0CE9B07C0BA01022E01C031
S1130E30660F0A94EAF7862BE3E0F1E03197F1F7C5
S1130E4000C000002F5F3F4F2830310561F78A3022
S1130E5059F0E0918E0091E09E0F90938E00F0E0A7
S1130E60E157FF4F808305C081E080938D0010928D
S1130E708E00FF91EF919F918F917F916F915F9180
S1130E804F913F912F910F900FBE0F901F90189587
S1130E90AA1BBB1B51E107C0AA1FBB1FA617B7079C
S1130EA010F0A61BB70B881F991F5A95A9F78095B8
S1130EB09095BC01CD010895FC0188279927E894F9
S1130EC021912032E9F3293010F02E30C8F32B326F
S1130ED039F02D3231F4689403C027D0820F911D6C
S1130EE0219120532A30C8F31EF4909581959F4F89
S1130EF008959111089581548A5108F4805E855AA9
S1130F0008954532510518F4423008F004C0FB013D
S1130F101082CB010895BB274A3031F4992322F47F
S1130F20BDE2909581959F4F0BC0BC01880F991F1E
S1130F30880F991F860F971F880F991F0895BB2745
S1130F40FB015527AA27880F991FAA1FA41710F081
S1130F50A41B83955051B9F7A05DAA3308F0A95D8D
S1130F60A193009779F7B111B1931192CB0100C00D
S1130F70DC01FC01672F71917723E1F7329704C0FC
S1130F807C916D9370836291AE17BF07C8F3089587
S1130F90E199FECF1FBA8EBBE09A99278DB30895CD
S1130FA0A8E1B0E042E013C0262FE199FECF1CBABD
S1130FB01FBA8EBB2DBB0FB6F894E29AE19A0FBE0E
S1130FC001960895F1DF272FF0CFDC01862FE82F5B
S1130FD0E199FECF1FBA05C0EEBBE09AE3950DB2CE
S10F0FE00D924150C8F70895F894FFCF1B
S9030000FC
